S01E00006D6C6175683030315F66696E616C5F70726F6A6563742E737265639F
S113000045C0000061C000005FC000005DC000008A
S11300105BC0000059C0000057C0000055C000007C
S113002053C0000051C000004FC000004DC000008C
S11300304BC0000005C6000047C0000045C00000DA
S113004043C0000041C000003FC000003DC00000AC
S11300503BC0000039C0000037C0000035C00000BC
S113006033C0000031C000002FC000002DC00000CC
S11300702BC0000029C0000027C0000025C00000DC
S113008023C0000021C000001FC0000011241FBEB7
S1130090CFEFD0E4DEBFCDBF11E0A0E0B1E0ECE3F0
S11300A0F3E100E00BBF02C007900D92A63CB1073C
S11300B0D9F728E0A6ECB1E001C01D92AA31B2073D
S11300C0E1F756D40C949C099BCFCF93DF93EC01BA
S11300D00AD72091C6013091C701CE01820F931F28
S11300E08C3D45E0940758F42817390758F4E90182
S11300F0C853DE4F9093C7018093C60105C0C0E08A
S1130100D0E002C0C0E0D0E0B5D7CE01DF91CF91FE
S113011008950895FC010396928381832FEF3FEFA6
S113012034832383968385839087878310820895FD
S1130130FC01118610860895CF93DF93FC01DB0147
S113014021813281E9018A819B8113969C938E934C
S113015012978181928115969C938E9314978A812C
S11301609B81EC017D836C83E9017B836A837283C9
S113017061831996FC93EE93189780818F5F808337
S1130180DF91CF910895CF93DF93EB01488159819B
S11301904F3F2FEF520731F4DC011796ED91FC919C
S11301A0189717C0FC013396DC0115962D913C91EC
S11301B01697D9012D913C914217530750F00280B4
S11301C0F381E02DA281B3812D913C914217530715
S11301D0B0F7A281B381BB83AA831596DC93CE9337
S11301E01497FD83EC83D383C28399878887FC01AA
S11301F020812F5F2083DF91CF910895FC01A2819C
S1130200B3818481958115969C938E931497A481D0
S1130210B5818281938113969C938E931297A085C6
S1130220B18511968D919C9112978E179F0731F489
S11302308481958112969C938E93119711861086D2
S11302408C9181508C930895813081F0E1ECF0E041
S1130250808188618083E2ECF0E080818660808325
S113026083E38093C4001092C5000895E9ECF0E0A4
S1130270808188618083EAECF0E0808186608083FD
S113028083E38093CC001092CD000895813029F44B
S11302908091C800882384F008958091C000882349
S11302A0ACF4A6ECB0E0E0ECF0E08C918093A40711
S11302B080818823D4F30895AEECB0E0E8ECF0E05C
S11302C08C918093A40780818823D4F308956130AE
S11302D041F0E0ECF0E0908195FFFDCF8093C60003
S11302E00895E8ECF0E0908195FFFDCF8093CE0077
S11302F00895813041F0E0ECF0E080818823ECF750
S11303008091C6000895E8ECF0E080818823ECF742
S11303108091CE000895FF920F931F93CF93DF93A4
S1130320062FFC0101900020E9F731971E2F181BBE
S113033051F0F82EC82FD92F602F8991C8DF8C2F48
S11303408F198117C8F3602F8FEFC1DF602F8FEFF4
S1130350BEDF602F8FEFBBDFDF91CF911F910F9135
S1130360FF90089580911508813049F018F082308B
S113037091F04CC01092B1071092B60750C0109281
S1130380B9071092B8071092B70783B180958F739D
S11303908093B20748C09091B6078091B30798172D
S11303A0C8F48091B907E82FF0E0EE5AFE4F90812F
S11303B09093B1078F5F60914D019CD79093B907DB
S11303C08091B7079091B80701969093B8078093EE
S11303D0B7078FC0891708F08CC08091B907E82F40
S11303E0F0E0E25BFE4F90819093B1078F5F6091E4
S11303F04D0180D79093B9078091B7079091B807C2
S113040001969093B8078093B70773C01092B10711
S1130410813049F020F0823009F087C06AC081E061
S11304208093150808958091B2078823E9F18130FB
S113043019F41092B3071DC0823021F481E0809337
S1130440B30717C0843021F482E08093B30711C04E
S1130450883021F483E08093B3070BC0803121F40A
S113046084E08093B30705C0803219F485E080935B
S1130470B30740914C018091B30790E02091B607F7
S1130480821B9109489F9001499F300D1124332309
S11304901CF43195219531093093B5072093B407A5
S11304A082E08093150808958091A6078130E9F4CD
S11304B04091B30750914C01842F90E02091B607EE
S11304C0821B9109589F9001599F300D11243323A9
S11304D01CF43195219531093093B5072093B40765
S11304E082E08093150848B9089581E08093150847
S11304F008952091B7073091B8078091B40790917F
S1130500B5072817390720F482E080931508089569
S11305108091B3078093B6071092A60791E0909359
S1130520150861E08F5FD3CE0895109215080895E1
S11305301092150817DF86E090E01DD6FBCF80915E
S113054016088230A1F018F4813031F04CC08330A9
S113055039F1843079F147C01092AF071092AE0799
S11305601092AD071092AC071092AB074FC0809168
S1130570AD07E82FF0E0E25BFE4F90819093B00767
S11305808F5F60914D01B6D69093AD078091AE0711
S11305909091AF0701969093AF078093AE0750C038
S11305A08091AB079091AC0701969093AC07809330
S11305B0AB075DC08091AD07E82FF0E0EE5AFE4F27
S11305C090819093B0078F5F60914D0193D6909383
S11305D0AD078091AE079091AF0701969093AF0756
S11305E08093AE075FC0823059F130F4882351F014
S11305F0813009F074C00AC08330C9F1843009F035
S11306006EC050C081E08093160808951E9908C0FA
S113061082E0809316081092AF071092AE070895F7
S11306208091A707813041F482E0809316081092EC
S1130630AF071092AE07089581E0809316080895DD
S11306402091AE073091AF0780914A0190914B0100
S11306502817390740F083E0809316081092AF07FB
S11306601092AE07089582E08093160808952091B1
S1130670AB073091AC07809148019091490128174C
S1130680390760F084E0809316081092AC0710924A
S1130690AB071092AF071092AE07089583E08093E2
S11306A0160808952091AE073091AF0780914A0152
S11306B090914B012817390770F081E08093160858
S11306C01092AC071092AB071092AF071092AE07CE
S11306D01092A707089584E080931608089581E096
S11306E08093160808951092160829DF88E090E098
S11306F042D5FBCF80911808882319F0813031F05E
S113070013C012B881E08093180808958091B0074F
S113071020E1829FC00111249091B107892B82B9F5
S113072081E080931808089581E08093180812B836
S1130730089510921808DEDF81E090E01CD5FBCF0D
S1130740809114088130B1F48091C000882314F59D
S113075080E0CFDD8093AA078A3A51F481E0809348
S1130760A90780E0C6DD8093A80780E08FDD02C082
S11307701092A90780911408882319F0813039F464
S1130780089581E0809314081092AA07089581E0E7
S113079080931408089510921408D2DF81E090E049
S11307A0EAD4FBCF80911908813019F41092A5077F
S11307B021C08230B9F130F4882369F0813009F026
S11307C087C018C0843009F468C008F45BC0853061
S11307D009F470C07DC081E0809319081092A507C8
S11307E01092A6071092A7078091B60761E08F5F69
S11307F06ECD08958091A907813081F48091A60778
S113080081110CC08091A707811108C060E088E5C0
S113081091E081DD82E080931908089581E080935E
S1130820190808952091A5078091A80790E0FC017C
S1130830EE0FFF1FE80FF91FEE0FFF1FE20FF11D70
S1130840E050FF4F8081813059F4263058F483E022
S11308508093190881E08093A6072093B307089535
S1130860263048F085E08093190881E08093A6073C
S11308701092B30708952F5F2093A50782E0809319
S1130880190808958091A607811125C081E08093FD
S1130890A70784E08093190808958091A707811120
S11308A01AC08091A5078F5F8093A50782E080938B
S11308B0190808958091A60781110DC01092A90707
S11308C060E083E691E027DD81E0809319080895D4
S11308D081E08093190808951092190863DF81E07C
S11308E090E049D4FBCFAF92BF92CF92DF92EF92C8
S11308F0FF920F93CF93A12CB12CC12CD12CE12CBE
S1130900F12C082F20E030E045E550E06EE671E080
S113091088E992E0CCD120E030E045E550E06CE796
S113092071E083E793E0C3D120E030E045E550E097
S11309306CE871E089E993E0BAD120E030E045E564
S113094050E06EE971E08BEC93E0B1D120E030E04F
S113095045E550E06FEA71E08CE694E0A8D1CF91D0
S11309600F91FF90EF90DF90CF90BF90AF900895DC
S11309708FEF81B912B814B885B987B918B880E077
S113098063DC81E061DC81E0AEDF84D280E090E072
S1130990089531E1FC013083319722E220833197BD
S11309A0A3E3A083319760833197708331971082DA
S11309B0319760E8608331971082319762E06083F9
S11309C0319763E06083319764E06083319765E039
S11309D06083319766E06083319767E06083319785
S11309E068E06083319769E06083319760E16083F8
S11309F031973083319732E13083319733E130835B
S1130A00319734E13083319735E13083319736E1E2
S1130A103083319737E13083319738E13083319730
S1130A2039E13083319730E23083319731E23083DA
S1130A3031972083319723E2208331974083319784
S1130A405083319726E22083319727E22083319720
S1130A5028E22083319729E22083319720E3208301
S1130A60319721E3208386970895109289008CE7BB
S1130A70809388008BE080938100EFE6F0E0808132
S1130A8082608083A0911208B0911308CD91CDBFEC
S1130A90DD91DEBFFF91EF91DF91CF91BF91AF91D7
S1130AA09F918F917F916F915F914F913F912F9182
S1130AB01F910F91FF90EF90DF90CF90BF90AF9078
S1130AC09F908F907F906F905F904F903F902F906A
S1130AD01F900F900FBE0F90089581E008950F921C
S1130AE00FB6F8940F921F9211242F923F924F92B7
S1130AF05F926F927F928F929F92AF92BF92CF92AA
S1130B00DF92EF92FF920F931F932F933F934F9394
S1130B105F936F937F938F939F93AF93BF93CF9381
S1130B20DF93EF93FF93A0911208B09113080DB6D1
S1130B300D920EB60D9272D3A0911208B0911308C3
S1130B40CD91CDBFDD91DEBFFF91EF91DF91CF91CC
S1130B50BF91AF919F918F917F916F915F914F91D1
S1130B603F912F911F910F91FF90EF90DF90CF90C5
S1130B70BF90AF909F908F907F906F905F904F90B9
S1130B803F902F901F900F900FBE0F9008950F92DB
S1130B900FB6F8940F921F9211242F923F924F9206
S1130BA05F926F927F928F929F92AF92BF92CF92F9
S1130BB0DF92EF92FF920F931F932F933F934F93E4
S1130BC05F936F937F938F939F93AF93BF93CF93D1
S1130BD0DF93EF93FF93A0911208B09113080DB621
S1130BE00D920EB60D9285D119D3A0911208B09131
S1130BF01308CD91CDBFDD91DEBFFF91EF91DF9161
S1130C00CF91BF91AF919F918F917F916F915F91A0
S1130C104F913F912F911F910F91FF90EF90DF9093
S1130C20CF90BF90AF909F908F907F906F905F9088
S1130C304F903F902F901F900F900FBE0F900895EC
S1130C40A6DF1895CF93DF93EC01E0911208F091A1
S1130C501308938382838091C2079091C307C817B6
S1130C60D90760F460911208709113088091D80735
S1130C709091D9076E5F7F4F86DA16C06091120893
S1130C80709113088091DA079091DB076E5F7F4FB4
S1130C907ADA8091560190915701C817D90720F448
S1130CA0D0935701C0935601DF91CF9108954F928D
S1130CB05F926F927F928F929F92AF92BF92CF92E8
S1130CC0DF92EF92FF920F931F93CF93DF935C0118
S1130CD04B013A01290181E290E0F7D9EC01892B1B
S1130CE009F4C6C0C114D10409F0BEC0C301EDD9D2
S1130CF0988F8F8B009719F4CE010BDAB9C0A3013A
S1130D0065EA70E003D39301215031098F89988DEE
S1130D103C01620E731E48E050E0B401CE014996D6
S1130D20FCD218A2102F043008F013E01E8B6E01C1
S1130D3082E0C80ED11CC601FBD9CE010C96F8D9AD
S1130D40D987C88784E090E0811B91099D878C87AF
S1130D50DB8BCA8BA201B501C3011BDE9983888397
S1130D60E114F10419F0F701D183C0830FB6F894AC
S1130D700F928091C4078F5F8093C40780911208FB
S1130D8090911308892B69F5D0931308C093120826
S1130D908091C4078130A1F58EEE97E0BBD987EF2F
S1130DA097E0B8D980E098E0B5D989E098E0B2D965
S1130DB085EE97E0AFD98CED97E0ACD98FEC97E056
S1130DC0A9D986EC97E0A6D985EE97E09093DB0746
S1130DD08093DA078CED97E09093D9078093D80736
S1130DE00FC08091BF0781110BC0E0911208F091F0
S1130DF013088689081720F0D0931308C0931208AB
S1130E008E899091C107981710F48093C10790912F
S1130E10BA079F5F9093BA079091C007981710F490
S1130E208093C00790E09C01220F331F220F331FD1
S1130E30220F331F820F931FB6018251984F7CD922
S1130E400F900FBE8091BF07882351F0E0911208E4
S1130E50F09113088689801728F441DE81E009C0E7
S1130E6081E007C081E005C0D88ECF8AC60147CF94
S1130E708FEFDF91CF911F910F91FF90EF90DF9053
S1130E80CF90BF90AF909F908F907F906F905F9026
S1130E904F900895AF92BF92CF92DF92EF92FF925C
S1130EA00F93A12CB12CC12CD12CE12CF12C00E0FE
S1130EB020E030E045E550E060EC71E086ED98E03C
S1130EC0F6DE813041F4F8948093BF071092C30793
S1130ED01092C207CADD0F91FF90EF90DF90CF9080
S1130EE0BF90AF9008958091BE078F5F8093BE0737
S1130EF008950F931F93CF93DF938091BE078111C1
S1130F00AFC08091C2079091C30701969093C30725
S1130F108093C2078091C2079091C307892B99F5EA
S1130F208091DA079091DB072091D8073091D90797
S1130F303093DB072093DA079093D9078093D8077F
S1130F408091BB078F5F8093BB07E091DA07F09134
S1130F50DB078081811107C08FEF9FEF90935701CA
S1130F608093560110C0E091DA07F091DB07058009
S1130F70F681E02D0680F781E02D828193819093A4
S1130F805701809356012091C2073091C307809185
S1130F905601909157012817390708F466C0E0916B
S1130FA0DA07F091DB078081882399F0E091DA0772
S1130FB0F091DB070580F681E02DC681D7818A8117
S1130FC09B812091C2073091C30728173907F8F491
S1130FD019C08FEF9FEF909357018093560145C03E
S1130FE0E091DA07F091DB070580F681E02DC681F8
S1130FF0D7818A819B812091C2073091C30728172A
S1131000390728F490935701809356012EC08E011E
S11310100E5F1F4FC801F2D88C899D89892B19F066
S1131020CE010C96EBD82E898091C007821710F45C
S11310302093C00730E0C901880F991F880F991FBA
S1131040880F991F820F931FB8018251984F74D84B
S1131050E091DA07F091DB0780818111C1CFB9CF2C
S11310608091BD078F5F8093BD07DF91CF911F9162
S11310700F910895CF92DF92EF92FF920F931F93F7
S1131080CF93DF930FB6F8940F928091BE078150EF
S11310908093BE078091BE0781115FC08091C40711
S11310A081112FC05DC0D7011596ED91FC91169763
S11310B0C681D781CE010C96A1D88E010E5F1F4F39
S11310C0C8019CD82E898091C007821710F4209300
S11310D0C00730E0C901880F991F880F991F880F36
S11310E0991F820F931FB8018251984F25D8E09120
S11310F01208F09113089E898689981758F0DC2C01
S113110009C0D12C0F2EFFECEF2EF7E0FF2EF02DAF
S1131110CC24C394F70180818111C5CF8091BD0790
S1131120882379F08091BD07882391F0E2DE8091D5
S1131130BD0781508093BD078091BD078111F6CF13
S113114007C0F1E0DF1621F08091BC07813039F44B
S11311501092BC07C4DC81E003C080E001C080E0E1
S11311600F900FBEDF91CF911F910F91FF90EF90E1
S1131170DF90CF900895CF93DF93EC01892B91F00A
S1131180B2DE8091C2079091C307C80FD91F809126
S1131190120890911308029631D8CE0153DD6ADF0C
S11311A0811101C09CDCDF91CF9108950F2EF6ECE4
S11311B0EF2EF7E0FF2EF02DCEEED7E08091C5079D
S11311C0882339F190DED7011C9154DF112309F1F2
S11311D00FB6F8940F92D7011596ED91FC911697DE
S11311E006811781C801029609D88091C4078150ED
S11311F08093C4078091C50781508093C5070F90E1
S11312000FBEF8018789908D0E948900C8010E9451
S113121089008881823090F262DCD0CF8091BE0751
S1131220811113C08091C00790E0FC01EE0FFF1FF5
S1131230EE0FFF1FEE0FFF1F8E0F9F1FFC01E251E9
S1131240F84F8081882329F01BC081E08093BC077C
S113125008958091C00781508093C0078091C00792
S113126090E0FC01EE0FFF1FEE0FFF1FEE0FFF1FBC
S11312708E0F9F1FFC01E251F84F8081882349F3B0
S11312808091C00790E09C01220F331F220F331F6F
S1131290220F331F280F391FD901A251B84F1196BD
S11312A0ED91FC9112970280F381E02D1296FC934C
S11312B0EE9311972F50384FE217F30729F4228148
S11312C03381FD0132832183FC01EE0FFF1FEE0FFA
S11312D0FF1FEE0FFF1F8E0F9F1FFC01E251F84FFF
S11312E00180F281E02D8681978190931308809389
S11312F012080895991B79E004C0991F961708F005
S1131300961B881F7A95C9F780950895DC0101C062
S11313106D9341505040E0F70895FB01DC014150CA
S1131320504048F001900D920020C9F701C01D9271
S10F133041505040E0F70895F894FFCFBE
S113133C0100000000010101000001000000010097
S113134C0101010000000100000100010001010085
S113135C0001000101000000000000010000000079
S113136C000001000000000000010000000000006B
S113137C01000000000000017D0094026E04090CC1
S113138C060303060C09FFFF706167652070616733
S113139C6532007061676520706167653000526F5B
S11313AC746174655365635461736B004469737041
S11313BC656E73655365635461736B00577269741E
S11313CC65504F5254415365635461736B00506FB5
S11313DC6C6C55534152545365635461736B004D9B
S11313EC616B654472696E6B5365635461736B0016
S10913FC49444C450000C9
S9030000FC
