:1000000045C0000060C000005EC000005CC0000091
:100010005AC0000058C0000056C0000054C0000084
:1000200052C0000050C000004EC000004CC0000094
:100030004AC00000BFC4000046C0000044C0000029
:1000400042C0000040C000003EC000003CC00000B4
:100050003AC0000038C0000036C0000034C00000C4
:1000600032C0000030C000002EC000002CC00000D4
:100070002AC0000028C0000026C0000024C00000E4
:1000800022C0000020C000001EC0000011241FBEBE
:10009000CFEFD0E4DEBFCDBF11E0A0E0B1E0ECEAED
:1000A000F0E100E00BBF02C007900D92A634B1074B
:1000B000D9F727E0A6E4B1E001C01D92A439B20748
:1000C000E1F710D3F1C79CCFCF93DF93EC01C5D5F7
:1000D0002091460130914701CE01820F931F8C3D44
:1000E00045E0940758F42817390758F4E901C85B2C
:1000F000DE4F909347018093460105C0C0E0D0E0F9
:1001000002C0C0E0D0E070D6CE01DF91CF9108955B
:100110000895FC010396928381832FEF3FEF348390
:100120002383968385839087878310820895FC01BB
:10013000118610860895CF93DF93FC01DB012181A6
:100140003281E9018A819B8113969C938E93129749
:100150008181928115969C938E9314978A819B81BD
:10016000EC017D836C83E9017B836A837283618305
:100170001996FC93EE93189780818F5F8083DF91AF
:10018000CF910895CF93DF93EB01488159814F3F81
:100190002FEF520731F4DC011796ED91FC9118977F
:1001A00017C0FC013396DC0115962D913C911697F2
:1001B000D9012D913C914217530750F00280F381F1
:1001C000E02DA281B3812D913C9142175307B0F7E6
:1001D000A281B381BB83AA831596DC93CE93149737
:1001E000FD83EC83D383C28399878887FC012081B8
:1001F0002F5F2083DF91CF910895FC01A281B3810D
:100200008481958115969C938E931497A481B581D2
:100210008281938113969C938E931297A085B185CA
:1002200011968D919C9112978E179F0731F48481BE
:10023000958112969C938E931197118610868C91BE
:1002400081508C930895813081F0E1ECF0E0808161
:1002500088618083E2ECF0E080818660808383E3C4
:100260008093C4001092C5000895E9ECF0E080810D
:1002700088618083EAECF0E080818660808383E39C
:100280008093CC001092CD000895813041F0E0ECD5
:10029000F0E080818823ECF78091C6000895E8ECB7
:1002A000F0E080818823ECF78091CE000895809162
:1002B0008F07813049F018F0823011F15CC0109244
:1002C0002A071092300759C0109233071092320754
:1002D0001092310710922D0783B180958F73809310
:1002E0002C07109291078091C000807880932B0793
:1002F000882309F442C080E0C8DF809391073DC0A5
:100300009091300780912D079817C8F4809133079A
:10031000E82FF0E0E65FFE4F908190932A078F5F11
:10032000609105019FD6909333078091310790919A
:100330003207019690933207809331071EC08917C8
:1003400008F08DC080913307E82FF0E0EA5FFE4FA0
:10035000908190932A078F5F6091050183D69093D7
:1003600033078091310790913207019690933207BD
:100370008093310702C010922A0780918F07813045
:1003800049F020F0823009F07DC069C081E080939F
:100390008F07089580912C078823E9F1813019F4A3
:1003A00010922D071DC0823021F481E080932D072B
:1003B00017C0843021F482E080932D0711C088306B
:1003C00021F483E080932D070BC0803121F484E079
:1003D00080932D0705C0803219F485E080932D07A6
:1003E0004091040180912D0790E020913007821BFD
:1003F0009109489F9001499F300D112433231CF42B
:1004000031952195310930932F0720932E0782E0F3
:1004100080938F070895809191078A3AA9F580E02B
:1004200034DF815080932D0790910401282F30E014
:1004300040913007241B3109929FA001939F500DDA
:10044000112455231CF451954195510950932F07C0
:1004500040932E0792E090938F0788B908952091DA
:1004600031073091320780912E0790912F0728177E
:10047000390750F080912D078093300781E08093F9
:100480008F07089510928F07089510928F070FDF3E
:1004900086E090E02AD5FBCF809190078230A1F0D2
:1004A00018F4813031F04CC0833039F1843079F167
:1004B00047C0109228071092270710922607109223
:1004C0002507109224074FC080912607E82FF0E0FF
:1004D000EA5FFE4F9081909329078F5F609105013D
:1004E000C1D5909326078091270790912807019600
:1004F000909328078093270744C080912407909108
:1005000025070196909325078093240751C0809179
:100510002607E82FF0E0E65FFE4F908190932907D1
:100520008F5F609105019ED59093260780912707E4
:10053000909128070196909328078093270753C02E
:100540008230F9F030F4882351F0813009F066C030
:100550000AC0833069F1843009F060C044C081E092
:100560008093900708951E9908C082E080939007B9
:100570001092280710922707089581E08093900732
:1005800008952091270730912807809102019091CA
:1005900003012817390740F083E0809390071092F9
:1005A000280710922707089582E080939007089506
:1005B000209124073091250780910001909101013D
:1005C0002817390760F084E0809390071092250780
:1005D000109224071092280710922707089583E0AD
:1005E00080939007089520912707309128078091E4
:1005F0000201909103012817390760F081E0809390
:100600009007109225071092240710922807109245
:100610002707089584E080939007089581E08093F0
:10062000900708951092900737DF8AE090E05DD43C
:10063000FBCF80919207882319F0813031F013C0ED
:1006400012B881E08093920708958091290720E1F4
:10065000829FC001112490912A07892B82B981E0E1
:1006600080939207089581E08093920712B80895CD
:1006700010929207DEDF81E090E037D4FBCFAF929B
:10068000BF92CF92DF92EF92FF920F93CF93A12C64
:10069000B12CC12CD12CE12CF12C082F20E030E022
:1006A00045E550E060E171E085E492E0BAD120E0F8
:1006B00030E045E550E06EE171E082E193E0B1D1D8
:1006C00020E030E045E550E06EE271E088E393E041
:1006D000A8D1CF910F91FF90EF90DF90CF90BF9076
:1006E000AF9008958FEF81B912B814B885B987B962
:1006F00018B880E0A8DD81E0A6DD81E0C0DF84D20B
:1007000080E090E0089531E1FC013083319722E2EE
:1007100020833197A3E3A08331976083319770835F
:1007200031971082319760E860833197108231975A
:1007300062E06083319763E06083319764E06083B7
:10074000319765E06083319766E06083319767E0B9
:100750006083319768E06083319769E06083319707
:1007600060E1608331973083319732E13083319794
:1007700033E13083319734E13083319735E1308391
:10078000319736E13083319737E13083319738E163
:100790003083319739E13083319730E230833197BC
:1007A00031E2308331972083319723E220833197E0
:1007B000408331975083319726E22083319727E297
:1007C0002083319728E22083319729E220833197D3
:1007D00020E32083319721E32083869708951092A8
:1007E00089008CE7809388008BE080938100EFE69E
:1007F000F0E0808182608083A0918C07B0918D07AA
:10080000CD91CDBFDD91DEBFFF91EF91DF91CF9113
:10081000BF91AF919F918F917F916F915F914F9118
:100820003F912F911F910F91FF90EF90DF90CF900C
:10083000BF90AF909F908F907F906F905F904F9000
:100840003F902F901F900F900FBE0F90089581E062
:1008500008950F920FB6F8940F921F9211242F92C1
:100860003F924F925F926F927F928F929F92AF9240
:10087000BF92CF92DF92EF92FF920F931F932F932D
:100880003F934F935F936F937F938F939F93AF9318
:10089000BF93CF93DF93EF93FF93A0918C07B09119
:1008A0008D070DB60D920EB60D9270D3A0918C07E8
:1008B000B0918D07CD91CDBFDD91DEBFFF91EF915E
:1008C000DF91CF91BF91AF919F918F917F916F9168
:1008D0005F914F913F912F911F910F91FF90EF905A
:1008E000DF90CF90BF90AF909F908F907F906F9050
:1008F0005F904F903F902F901F900F900FBE0F90E2
:1009000008950F920FB6F8940F921F9211242F9210
:100910003F924F925F926F927F928F929F92AF928F
:10092000BF92CF92DF92EF92FF920F931F932F937C
:100930003F934F935F936F937F938F939F93AF9367
:10094000BF93CF93DF93EF93FF93A0918C07B09168
:100950008D070DB60D920EB60D9285D117D3A091CD
:100960008C07B0918D07CD91CDBFDD91DEBFFF919A
:10097000EF91DF91CF91BF91AF919F918F917F9137
:100980006F915F914F913F912F911F910F91FF9028
:10099000EF90DF90CF90BF90AF909F908F907F901F
:1009A0006F905F904F903F902F901F900F900FBED1
:1009B0000F900895A6DF1895CF93DF93EC01E09197
:1009C0008C07F0918D079383828380913C079091EF
:1009D0003D07C817D90760F460918C0770918D07A7
:1009E00080915207909153076E5F7F4FCBDB16C00B
:1009F00060918C0770918D078091540790915507F5
:100A00006E5F7F4FBFDB80910E0190910F01C81781
:100A1000D90720F4D0930F01C0930E01DF91CF913D
:100A200008954F925F926F927F928F929F92AF92B2
:100A3000BF92CF92DF92EF92FF920F931F93CF93CB
:100A4000DF935C014B013A01290181E290E03CDB3C
:100A5000EC01892B09F4C6C0C114D10409F0BEC051
:100A6000C30132DB988F8F8B009719F4CE0150DBD6
:100A7000B9C0A30165EA70E001D3930121503109A7
:100A80008F89988D3C01620E731E48E050E0B401DE
:100A9000CE014996FAD218A2102F043008F013E0C4
:100AA0001E8B6E0182E0C80ED11CC60140DBCE0158
:100AB0000C963DDBD987C88784E090E0811B9109C3
:100AC0009D878C87DB8BCA8BA201B501C3011BDE1E
:100AD00099838883E114F10419F0F701D183C0836D
:100AE0000FB6F8940F9280913E078F5F80933E0778
:100AF00080918C0790918D07892B69F5D0938D0794
:100B0000C0938C0780913E078130A1F588E697E07D
:100B100000DB81E797E0FDDA8AE797E0FADA83E81D
:100B200097E0F7DA8FE597E0F4DA86E597E0F1DA17
:100B300089E497E0EEDA80E497E0EBDA8FE597E07E
:100B4000909355078093540786E597E09093530759
:100B5000809352070FC08091390781110BC0E0913B
:100B60008C07F0918D078689081720F0D0938D07A8
:100B7000C0938C078E8990913B07981710F480934F
:100B80003B07909134079F5F9093340790913A0709
:100B9000981710F480933A0790E09C01220F331FBE
:100BA000220F331F220F331F820F931FB601885964
:100BB000984FC1DA0F900FBE80913907882351F00A
:100BC000E0918C07F0918D078689801728F441DE2B
:100BD00081E009C081E007C081E005C0D88ECF8ADE
:100BE000C60147CF8FEFDF91CF911F910F91FF90FB
:100BF000EF90DF90CF90BF90AF909F908F907F90BD
:100C00006F905F904F900895AF92BF92CF92DF9216
:100C1000EF92FF920F93A12CB12CC12CD12CE12C7F
:100C2000F12C00E020E030E045E550E060E471E0C8
:100C300080E997E0F6DE813041F4F894809339073B
:100C400010923D0710923C07CADD0F91FF90EF9084
:100C5000DF90CF90BF90AF900895809138078F5F5D
:100C60008093380708950F931F93CF93DF9380915C
:100C700038078111AFC080913C0790913D070196E4
:100C800090933D0780933C0780913C0790913D07EE
:100C9000892B99F58091540790915507209152071F
:100CA000309153073093550720935407909353077F
:100CB00080935207809135078F5F80933507E091CD
:100CC0005407F09155078081811107C08FEF9FEF86
:100CD00090930F0180930E0110C0E0915407F091A2
:100CE00055070580F681E02D0680F781E02D828191
:100CF000938190930F0180930E0120913C073091D6
:100D00003D0780910E0190910F012817390708F4D3
:100D100066C0E0915407F09155078081882399F0CF
:100D2000E0915407F09155070580F681E02DC681CA
:100D3000D7818A819B8120913C0730913D072817FC
:100D40003907F8F419C08FEF9FEF90930F0180934C
:100D50000E0145C0E0915407F09155070580F681DA
:100D6000E02DC681D7818A819B8120913C073091FB
:100D70003D072817390728F490930F0180930E013F
:100D80002EC08E010E5F1F4FC80137DA8C899D89F6
:100D9000892B19F0CE010C9630DA2E8980913A0712
:100DA000821710F420933A0730E0C901880F991F89
:100DB000880F991F880F991F820F931FB8018859B8
:100DC000984FB9D9E0915407F0915507808181116E
:100DD000C1CFB9CF809137078F5F80933707DF91FD
:100DE000CF911F910F910895CF92DF92EF92FF92D2
:100DF0000F931F93CF93DF930FB6F8940F928091C8
:100E000038078150809338078091380781115FC07F
:100E100080913E0781112FC05DC0D7011596ED91DD
:100E2000FC911697C681D781CE010C96E6D98E012A
:100E30000E5F1F4FC801E1D92E8980913A078217B2
:100E400010F420933A0730E0C901880F991F880FEA
:100E5000991F880F991F820F931FB8018859984FC7
:100E60006AD9E0918C07F0918D079E898689981741
:100E700058F0DC2C09C0D12C0F2EF9E4EF2EF7E04E
:100E8000FF2EF02DCC24C394F70180818111C5CFB2
:100E900080913707882379F080913707882391F074
:100EA000E2DE8091370781508093370780913707C2
:100EB0008111F6CF07C0F1E0DF1621F080913607EF
:100EC000813039F410923607C4DC81E003C080E041
:100ED00001C080E00F900FBEDF91CF911F910F9165
:100EE000FF90EF90DF90CF900895CF93DF93EC01C8
:100EF000892B91F0B2DE80913C0790913D07C80F9D
:100F0000D91F80918C0790918D07029676D9CE01DA
:100F100053DD6ADF811101C09CDCDF91CF91089520
:100F20000F2EF0E4EF2EF7E0FF2EF02DC8E6D7E00D
:100F300080913F07882329F190DED7011C9154DF6F
:100F40001123F9F00FB6F8940F92D7011596ED9191
:100F5000FC91169706811781C80102964ED980919F
:100F60003E07815080933E0780913F0781508093D8
:100F70003F070F900FBEF8018789908DC9D8C8012F
:100F8000C7D888818230A0F264DCD2CF8091380744
:100F9000811113C080913A0790E0FC01EE0FFF1F12
:100FA000EE0FFF1FEE0FFF1F8E0F9F1FFC01E85972
:100FB000F84F8081882329F01BC081E08093360799
:100FC000089580913A07815080933A0780913A07BB
:100FD00090E0FC01EE0FFF1FEE0FFF1FEE0FFF1F53
:100FE0008E0F9F1FFC01E859F84F8081882349F339
:100FF00080913A0790E09C01220F331F220F331F8C
:10100000220F331F280F391FD901A859B84F119645
:10101000ED91FC9112970280F381E02D1296FC93E2
:10102000EE9311972559384FE217F30729F42281DF
:101030003381FD0132832183FC01EE0FFF1FEE0F90
:10104000FF1FEE0FFF1F8E0F9F1FFC01E859F84F87
:101050000180F281E02D8681978190938D078093A6
:101060008C070895991B79E004C0991F961708F022
:10107000961B881F7A95C9F780950895DC0101C0F9
:101080006D9341505040E0F70895FB01DC01415061
:10109000504048F001900D920020C9F701C01D9208
:0C10A00041505040E0F70895F894FFCF55
:1010AC00F40194026E04090C060303060C09FFFFFD
:1010BC00526F746174655365635461736B0044695A
:1010CC007370656E73655365635461736B0057720F
:1010DC00697465504F5254415365635461736B008E
:0610EC0049444C450000E0
:00000001FF
