S01E00006D6C6175683030315F66696E616C5F70726F6A6563742E737265639F
S113000045C0000061C000005FC000005DC000008A
S11300105BC0000059C0000057C0000055C000007C
S113002053C0000051C000004FC000004DC000008C
S11300304BC00000FCC5000047C0000045C00000E4
S113004043C0000041C000003FC000003DC00000AC
S11300503BC0000039C0000037C0000035C00000BC
S113006033C0000031C000002FC000002DC00000CC
S11300702BC0000029C0000027C0000025C00000DC
S113008023C0000021C000001FC0000011241FBEB7
S1130090CFEFD0E4DEBFCDBF11E0A0E0B1E0EAE2F3
S11300A0F3E100E00BBF02C007900D92A23AB10742
S11300B0D9F727E0A2EAB1E001C01D92A63FB2073A
S11300C0E1F74DD40C9493099BCFCF93DF93EC01CC
S11300D001D72091A2013091A301CE01820F931F79
S11300E08C3D45E0940758F42817390758F4E90182
S11300F0CC55DE4F9093A3018093A20105C0C0E0CC
S1130100D0E002C0C0E0D0E0ACD7CE01DF91CF9107
S113011008950895FC010396928381832FEF3FEFA6
S113012034832383968385839087878310820895FD
S1130130FC01118610860895CF93DF93FC01DB0147
S113014021813281E9018A819B8113969C938E934C
S113015012978181928115969C938E9314978A812C
S11301609B81EC017D836C83E9017B836A837283C9
S113017061831996FC93EE93189780818F5F808337
S1130180DF91CF910895CF93DF93EB01488159819B
S11301904F3F2FEF520731F4DC011796ED91FC919C
S11301A0189717C0FC013396DC0115962D913C91EC
S11301B01697D9012D913C914217530750F00280B4
S11301C0F381E02DA281B3812D913C914217530715
S11301D0B0F7A281B381BB83AA831596DC93CE9337
S11301E01497FD83EC83D383C28399878887FC01AA
S11301F020812F5F2083DF91CF910895FC01A2819C
S1130200B3818481958115969C938E931497A481D0
S1130210B5818281938113969C938E931297A085C6
S1130220B18511968D919C9112978E179F0731F489
S11302308481958112969C938E93119711861086D2
S11302408C9181508C930895813081F0E1ECF0E041
S1130250808188618083E2ECF0E080818660808325
S113026083E38093C4001092C5000895E9ECF0E0A4
S1130270808188618083EAECF0E0808186608083FD
S113028083E38093CC001092CD000895813029F44B
S11302908091C800882384F008958091C000882349
S11302A0ACF4A6ECB0E0E0ECF0E08C918093800735
S11302B080818823D4F30895AEECB0E0E8ECF0E05C
S11302C08C918093800780818823D4F308956130D2
S11302D041F0E0ECF0E0908195FFFDCF8093C60003
S11302E00895E8ECF0E0908195FFFDCF8093CE0077
S11302F00895813041F0E0ECF0E080818823ECF750
S11303008091C6000895E8ECF0E080818823ECF742
S11303108091CE000895FF920F931F93CF93DF93A4
S1130320062FFC0101900020E9F731971E2F181BBE
S113033051F0F82EC82FD92F602F8991C8DF8C2F48
S11303408F198117C8F3602F8FEFC1DF602F8FEFF4
S1130350BEDF602F8FEFBBDFDF91CF911F910F9135
S1130360FF9008958091F107813049F018F08230B0
S113037091F04CC010928D071092920750C01092C9
S11303809507109294071092930783B180958F7309
S113039080938E0748C09091920780918F07981799
S11303A0C8F480919507E82FF0E0E25DFE4F90815C
S11303B090938D078F5F6091290193D79093950750
S11303C0809193079091940701969093940780935A
S11303D093078FC0891708F08CC080919507E82F88
S11303E0F0E0E65DFE4F908190938D078F5F609102
S11303F0290177D79093950780919307909194075B
S11304000196909394078093930773C010928D077D
S1130410813049F020F0823009F087C06AC081E061
S11304208093F107089580918E078823E9F1813044
S113043019F410928F071DC0823021F481E080935B
S11304408F0717C0843021F482E080938F0711C096
S1130450883021F483E080938F070BC0803121F42E
S113046084E080938F0705C0803219F485E080937F
S11304708F074091280180918F0790E02091920787
S1130480821B9109489F9001499F300D1124332309
S11304901CF43195219531093093910720939007ED
S11304A082E08093F1070895809182078130E9F416
S11304B040918F0750912801842F90E0209192075A
S11304C0821B9109589F9001599F300D11243323A9
S11304D01CF43195219531093093910720939007AD
S11304E082E08093F10748B9089581E08093F10791
S11304F008952091930730919407809190079091EB
S113050091072817390720F482E08093F1070895B2
S113051080918F07809392071092820791E09093C5
S1130520F10761E08F5FD3CE08951092F10708952B
S11305301092F10717DF86E090E014D6FBCF80918C
S1130540F2078230A1F018F4813031F04CC08330CE
S113055039F1843079F147C010928B0710928A07E1
S11305601092890710928807109287074FC08091D4
S11305708907E82FF0E0E65DFE4F908190938C07A9
S11305808F5F60912901ADD69093890780918A0786
S113059090918B07019690938B0780938A0750C0A4
S11305A0809187079091880701969093880780939C
S11305B087075DC080918907E82FF0E0E25DFE4F78
S11305C0908190938C078F5F609129018AD69093D4
S11305D0890780918A0790918B07019690938B07E6
S11305E080938A075FC0823059F130F4882351F038
S11305F0813009F074C00AC08330C9F1843009F035
S11306006EC050C081E08093F20708951E9908C01F
S113061082E08093F20710928B0710928A07089564
S113062080918307813041F482E08093F207109235
S11306308B0710928A07089581E08093F20708954A
S113064020918A0730918B07809126019091270190
S11306502817390740F083E08093F20710928B0744
S113066010928A07089582E08093F20708952091FA
S113067087073091880780912401909125012817DC
S1130680390760F084E08093F20710928807109293
S1130690870710928B0710928A07089583E080934E
S11306A0F207089520918A0730918B0780912601E3
S11306B0909127012817390770F081E08093F207A1
S11306C0109288071092870710928B0710928A075E
S11306D010928307089584E08093F207089581E0DF
S11306E08093F20708951092F20729DF88E090E0E2
S11306F039D5FBCF8091F407882319F0813031F08C
S113070013C012B881E08093F407089580918C0798
S113071020E1829FC001112490918D07892B82B919
S113072081E08093F407089581E08093F40712B880
S113073008951092F407DEDF81E090E013D5FBCF3B
S11307408091F0078130B1F48091C000882314F5C2
S113075080E0CFDD809386078A3A51F481E080936C
S1130760850780E0C6DD8093840780E08FDD02C0CA
S1130770109285078091F007882319F0813039F4AD
S1130780089581E08093F00710928607089581E030
S11307908093F00708951092F007D2DF81E090E093
S11307A0E1D4FBCFCF938091F507813019F41092F7
S11307B081071FC08230A9F130F4882359F08130B9
S11307C009F07CC016C0833009F460C0843009F499
S11307D068C074C081E08093F5071092810710927D
S11307E08207109283078091920761E08F5F6FDD2B
S11307F068C080918507813081F4809182078111DE
S11308000CC080918307811108C060E084E391E00B
S113081082DD82E08093F50754C081E08093F50780
S113082050C0209181078091840790E0FC01EE0F75
S1130830FF1FE80FF91FEE0FFF1FE20FF11DE0503D
S1130840FF4F8081813059F4263058F483E080933F
S1130850F50781E08093820720938F0732C026300A
S113086070F0C1E0C093F50760E08FE391E053DDE1
S113087010928507C093820710928F0722C02F5FC2
S11308802093810782E08093F5071BC08091820743
S1130890811117C081E08093830784E08093F5077A
S11308A010C08091830781110CC0809181078F5FF4
S11308B08093810782E08093F50703C081E08093F1
S11308C0F507CF9108951092F5076CDF81E090E071
S11308D049D4FBCFAF92BF92CF92DF92EF92FF92B7
S11308E00F93CF93A12CB12CC12CD12CE12CF12C42
S11308F0082F20E030E045E550E06AE471E088E943
S113090092E0CCD120E030E045E550E068E571E0CC
S113091083E793E0C3D120E030E045E550E068E6AA
S113092071E089E993E0BAD120E030E045E550E098
S11309306AE771E08BEC93E0B1D120E030E045E56B
S113094050E06BE871E083E694E0A8D1CF910F9179
S1130950FF90EF90DF90CF90BF90AF9008958FEF0E
S113096081B912B814B885B987B918B880E06CDCBD
S113097081E06ADC81E0AEDF84D280E090E008951B
S113098031E1FC013083319722E220833197A3E3E4
S1130990A0833197608331977083319710823197A8
S11309A060E8608331971082319762E06083319709
S11309B063E06083319764E06083319765E060832E
S11309C0319766E06083319767E06083319768E030
S11309D06083319769E06083319760E16083319788
S11309E03083319732E13083319733E1308331976B
S11309F034E13083319735E13083319736E1308308
S1130A00319737E13083319738E13083319739E1D9
S1130A103083319730E23083319731E2308331973C
S1130A202083319723E22083319740833197508389
S1130A30319726E22083319727E22083319728E2F9
S1130A402083319729E22083319720E32083319753
S1130A5021E3208386970895109289008CE7809380
S1130A6088008BE080938100EFE6F0E08081826073
S1130A708083A091EE07B091EF07CD91CDBFDD91BA
S1130A80DEBFFF91EF91DF91CF91BF91AF919F9125
S1130A908F917F916F915F914F913F912F911F9112
S1130AA00F91FF90EF90DF90CF90BF90AF909F9009
S1130AB08F907F906F905F904F903F902F901F90FA
S1130AC00F900FBE0F90089581E008950F920FB616
S1130AD0F8940F921F9211242F923F924F925F929B
S1130AE06F927F928F929F92AF92BF92CF92DF923A
S1130AF0EF92FF920F931F932F933F934F935F9324
S1130B006F937F938F939F93AF93BF93CF93DF9311
S1130B10EF93FF93A091EE07B091EF070DB60D92FE
S1130B200EB60D9272D3A091EE07B091EF07CD915E
S1130B30CDBFDD91DEBFFF91EF91DF91CF91BF91EA
S1130B40AF919F918F917F916F915F914F913F9161
S1130B502F911F910F91FF90EF90DF90CF90BF9056
S1130B60AF909F908F907F906F905F904F903F9049
S1130B702F901F900F900FBE0F9008950F920FB6F5
S1130B80F8940F921F9211242F923F924F925F92EA
S1130B906F927F928F929F92AF92BF92CF92DF9289
S1130BA0EF92FF920F931F932F933F934F935F9373
S1130BB06F937F938F939F93AF93BF93CF93DF9361
S1130BC0EF93FF93A091EE07B091EF070DB60D924E
S1130BD00EB60D9285D119D3A091EE07B091EF070F
S1130BE0CD91CDBFDD91DEBFFF91EF91DF91CF912C
S1130BF0BF91AF919F918F917F916F915F914F9131
S1130C003F912F911F910F91FF90EF90DF90CF9024
S1130C10BF90AF909F908F907F906F905F904F9018
S1130C203F902F901F900F900FBE0F900895A6DF56
S1130C301895CF93DF93EC01E091EE07F091EF0765
S1130C409383828380919E0790919F07C817D90749
S1130C5060F46091EE077091EF078091B407909172
S1130C60B5076E5F7F4F8FDA16C06091EE07709103
S1130C70EF078091B6079091B7076E5F7F4F83DAD5
S1130C808091320190913301C817D90720F4D09391
S1130C903301C0933201DF91CF9108954F925F9257
S1130CA06F927F928F929F92AF92BF92CF92DF9278
S1130CB0EF92FF920F931F93CF93DF935C014B014D
S1130CC03A01290181E290E000DAEC01892B09F470
S1130CD0C6C0C114D10409F0BEC0C301F6D9988FAF
S1130CE08F8B009719F4CE0114DAB9C0A30165EA19
S1130CF070E003D39301215031098F89988D3C0111
S1130D00620E731E48E050E0B401CE014996FCD255
S1130D1018A2102F043008F013E01E8B6E0182E03D
S1130D20C80ED11CC60104DACE010C9601DAD987AB
S1130D30C88784E090E0811B91099D878C87DB8BB9
S1130D40CA8BA201B501C3011BDE99838883E11418
S1130D50F10419F0F701D183C0830FB6F8940F9210
S1130D608091A0078F5F8093A0078091EE079091F8
S1130D70EF07892B69F5D093EF07C093EE078091B5
S1130D80A0078130A1F58AEC97E0C4D983ED97E000
S1130D90C1D98CED97E0BED985EE97E0BBD981EC43
S1130DA097E0B8D988EB97E0B5D98BEA97E0B2D948
S1130DB082EA97E0AFD981EC97E09093B7078093EC
S1130DC0B60788EB97E09093B5078093B4070FC0FC
S1130DD080919B0781110BC0E091EE07F091EF0722
S1130DE08689081720F0D093EF07C093EE078E8909
S1130DF090919D07981710F480939D079091960702
S1130E009F5F9093960790919C07981710F4809396
S1130E109C0790E09C01220F331F220F331F220FE7
S1130E20331F820F931FB6018653984F85D90F90B5
S1130E300FBE80919B07882351F0E091EE07F0915B
S1130E40EF078689801728F441DE81E009C081E03C
S1130E5007C081E005C0D88ECF8AC60147CF8FEF87
S1130E60DF91CF911F910F91FF90EF90DF90CF9082
S1130E70BF90AF909F908F907F906F905F904F90B6
S1130E800895AF92BF92CF92DF92EF92FF920F93A9
S1130E90A12CB12CC12CD12CE12CF12C00E020E0B0
S1130EA030E045E550E06CE971E08DEC98E0F6DE69
S1130EB0813041F4F89480939B0710929F0710921D
S1130EC09E07CADD0F91FF90EF90DF90CF90BF9007
S1130ED0AF90089580919A078F5F80939A07089541
S1130EE00F931F93CF93DF9380919A078111AFC023
S1130EF080919E0790919F07019690939F078093FE
S1130F009E0780919E0790919F07892B99F5809168
S1130F10B6079091B7072091B4073091B507309385
S1130F20B7072093B6079093B5078093B4078091D1
S1130F3097078F5F80939707E091B607F091B70703
S1130F408081811107C08FEF9FEF909333018093CD
S1130F50320110C0E091B607F091B7070580F68121
S1130F60E02D0680F781E02D8281938190933301F7
S1130F708093320120919E0730919F078091320126
S1130F80909133012817390708F466C0E091B60739
S1130F90F091B7078081882399F0E091B607F0912A
S1130FA0B7070580F681E02DC681D7818A819B81B0
S1130FB020919E0730919F0728173907F8F419C02C
S1130FC08FEF9FEF909333018093320145C0E091FE
S1130FD0B607F091B7070580F681E02DC681D78169
S1130FE08A819B8120919E0730919F07281739079A
S1130FF028F490933301809332012EC08E010E5F4A
S11310001F4FC801FBD88C899D89892B19F0CE010B
S11310100C96F4D82E8980919C07821710F42093A3
S11310209C0730E0C901880F991F880F991F880F0A
S1131030991F820F931FB8018653984F7DD8E09172
S1131040B607F091B70780818111C1CFB9CF8091E4
S113105099078F5F80939907DF91CF911F910F912B
S11310600895CF92DF92EF92FF920F931F93CF9345
S1131070DF930FB6F8940F9280919A078150809372
S11310809A0780919A0781115FC08091A00781110E
S11310902FC05DC0D7011596ED91FC911697C681BE
S11310A0D781CE010C96AAD88E010E5F1F4FC801BE
S11310B0A5D82E8980919C07821710F420939C0751
S11310C030E0C901880F991F880F991F880F991F55
S11310D0820F931FB8018653984F2ED8E091EE07E4
S11310E0F091EF079E898689981758F0DC2C09C087
S11310F0D12C0F2EFBEAEF2EF7E0FF2EF02DCC249F
S1131100C394F70180818111C5CF80919907882309
S113111079F080919907882391F0E2DE8091990714
S1131120815080939907809199078111F6CF07C068
S1131130F1E0DF1621F080919807813039F41092A4
S11311409807C4DC81E003C080E001C080E00F9018
S11311500FBEDF91CF911F910F91FF90EF90DF9021
S1131160CF900895CF93DF93EC01892B91F0B2DEF9
S113117080919E0790919F07C80FD91F8091EE0719
S11311809091EF0702963AD8CE0153DD6ADF8111C0
S113119001C09CDCDF91CF9108950F2EF2EAEF2E6F
S11311A0F7E0FF2EF02DCAECD7E08091A107882349
S11311B039F190DED7011C9154DF112309F10FB6E8
S11311C0F8940F92D7011596ED91FC91169706812C
S11311D01781C801029612D88091A007815080938C
S11311E0A0078091A10781508093A1070F900FBEA3
S11311F0F8018789908D0E948900C8010E948900A6
S11312008881823090F262DCD0CF80919A0781117C
S113121013C080919C0790E0FC01EE0FFF1FEE0FBE
S1131220FF1FEE0FFF1F8E0F9F1FFC01E653F84FA9
S11312308081882329F01BC081E08093980708955A
S113124080919C07815080939C0780919C0790E03B
S1131250FC01EE0FFF1FEE0FFF1FEE0FFF1F8E0F9F
S11312609F1FFC01E653F84F8081882349F3809146
S11312709C0790E09C01220F331F220F331F220F83
S1131280331F280F391FD901A653B84F1196ED917A
S1131290FC9112970280F381E02D1296FC93EE9359
S11312A011972353384FE217F30729F4228133812E
S11312B0FD0132832183FC01EE0FFF1FEE0FFF1FA0
S11312C0EE0FFF1F8E0F9F1FFC01E653F84F0180A6
S11312D0F281E02D868197819093EF078093EE074A
S11312E00895991B79E004C0991F961708F0961B7E
S11312F0881F7A95C9F780950895DC0101C06D9324
S113130041505040E0F70895FB01DC01415050404A
S113131048F001900D920020C9F701C01D92415080
S10D13205040E0F70895F894FFCF61
S113132A01000000000001010000010000000100AA
S113133A0101010000000100000100010001010097
S113134A000100017D0094026E04090C06030306E1
S113135A0C09FFFF70616765207061676532007070
S113136A61676520706167653000526F74617465E6
S113137A5365635461736B0044697370656E736576
S113138A5365635461736B005772697465504F52A5
S113139A54415365635461736B00506F6C6C5553BD
S11313AA4152545365635461736B004D616B6544D8
S11313BA72696E6B5365635461736B0049444C459F
S10513CA00001D
S9030000FC
